{
    "contractName": "ShipmentContract",
    "abi": [
        {
            "inputs": [],
            "stateMutability": "nonpayable",
            "type": "constructor"
        },
        {
            "anonymous": false,
            "inputs": [
                {
                    "indexed": false,
                    "internalType": "uint256",
                    "name": "id",
                    "type": "uint256"
                },
                {
                    "indexed": false,
                    "internalType": "uint256",
                    "name": "price",
                    "type": "uint256"
                },
                {
                    "indexed": false,
                    "internalType": "address",
                    "name": "seller",
                    "type": "address"
                },
                {
                    "indexed": false,
                    "internalType": "address",
                    "name": "buyer",
                    "type": "address"
                }
            ],
            "name": "CreateShipment",
            "type": "event"
        },
        {
            "anonymous": false,
            "inputs": [
                {
                    "indexed": false,
                    "internalType": "address",
                    "name": "userID",
                    "type": "address"
                }
            ],
            "name": "CreateUser",
            "type": "event"
        },
        {
            "anonymous": false,
            "inputs": [
                {
                    "indexed": false,
                    "internalType": "uint256",
                    "name": "id",
                    "type": "uint256"
                },
                {
                    "indexed": false,
                    "internalType": "bool",
                    "name": "customApproved",
                    "type": "bool"
                }
            ],
            "name": "CustomExitApproval",
            "type": "event"
        },
        {
            "anonymous": false,
            "inputs": [
                {
                    "indexed": false,
                    "internalType": "uint256",
                    "name": "id",
                    "type": "uint256"
                },
                {
                    "indexed": false,
                    "internalType": "uint256",
                    "name": "price",
                    "type": "uint256"
                }
            ],
            "name": "ShipmentPaid",
            "type": "event"
        },
        {
            "anonymous": false,
            "inputs": [
                {
                    "indexed": false,
                    "internalType": "uint256",
                    "name": "id",
                    "type": "uint256"
                },
                {
                    "indexed": false,
                    "internalType": "address",
                    "name": "ownerId",
                    "type": "address"
                },
                {
                    "indexed": false,
                    "internalType": "enum ShipmentContract.STATUS",
                    "name": "status",
                    "type": "uint8"
                }
            ],
            "name": "StartShipping",
            "type": "event"
        },
        {
            "anonymous": false,
            "inputs": [
                {
                    "indexed": false,
                    "internalType": "uint256",
                    "name": "id",
                    "type": "uint256"
                },
                {
                    "indexed": false,
                    "internalType": "uint256",
                    "name": "price",
                    "type": "uint256"
                },
                {
                    "indexed": false,
                    "internalType": "address",
                    "name": "seller",
                    "type": "address"
                },
                {
                    "indexed": false,
                    "internalType": "address",
                    "name": "buyer",
                    "type": "address"
                },
                {
                    "indexed": false,
                    "internalType": "address",
                    "name": "ownerId",
                    "type": "address"
                }
            ],
            "name": "TransferOwnership",
            "type": "event"
        },
        {
            "anonymous": false,
            "inputs": [
                {
                    "indexed": false,
                    "internalType": "address",
                    "name": "userID",
                    "type": "address"
                }
            ],
            "name": "VerifyUser",
            "type": "event"
        },
        {
            "inputs": [
                {
                    "internalType": "uint256",
                    "name": "",
                    "type": "uint256"
                }
            ],
            "name": "shipments",
            "outputs": [
                {
                    "internalType": "uint256",
                    "name": "id",
                    "type": "uint256"
                },
                {
                    "internalType": "enum ShipmentContract.STATUS",
                    "name": "status",
                    "type": "uint8"
                },
                {
                    "internalType": "enum ShipmentContract.OWNER",
                    "name": "owner",
                    "type": "uint8"
                },
                {
                    "internalType": "address",
                    "name": "ownerId",
                    "type": "address"
                },
                {
                    "internalType": "uint256",
                    "name": "price",
                    "type": "uint256"
                },
                {
                    "internalType": "address payable",
                    "name": "seller",
                    "type": "address"
                },
                {
                    "internalType": "address",
                    "name": "buyer",
                    "type": "address"
                },
                {
                    "internalType": "bool",
                    "name": "paid",
                    "type": "bool"
                },
                {
                    "internalType": "bool",
                    "name": "customExit",
                    "type": "bool"
                },
                {
                    "internalType": "bool",
                    "name": "customEnter",
                    "type": "bool"
                }
            ],
            "stateMutability": "view",
            "type": "function"
        },
        {
            "inputs": [
                {
                    "internalType": "uint256",
                    "name": "",
                    "type": "uint256"
                }
            ],
            "name": "userIds",
            "outputs": [
                {
                    "internalType": "address",
                    "name": "",
                    "type": "address"
                }
            ],
            "stateMutability": "view",
            "type": "function"
        },
        {
            "inputs": [
                {
                    "internalType": "address",
                    "name": "",
                    "type": "address"
                }
            ],
            "name": "users",
            "outputs": [
                {
                    "internalType": "address",
                    "name": "id",
                    "type": "address"
                },
                {
                    "internalType": "enum ShipmentContract.ROLE",
                    "name": "role",
                    "type": "uint8"
                },
                {
                    "internalType": "bool",
                    "name": "isVerified",
                    "type": "bool"
                }
            ],
            "stateMutability": "view",
            "type": "function"
        },
        {
            "inputs": [
                {
                    "internalType": "string",
                    "name": "role",
                    "type": "string"
                }
            ],
            "name": "setUser",
            "outputs": [
                {
                    "components": [
                        {
                            "internalType": "address",
                            "name": "id",
                            "type": "address"
                        },
                        {
                            "internalType": "enum ShipmentContract.ROLE",
                            "name": "role",
                            "type": "uint8"
                        },
                        {
                            "internalType": "bool",
                            "name": "isVerified",
                            "type": "bool"
                        }
                    ],
                    "internalType": "struct ShipmentContract.User",
                    "name": "userC",
                    "type": "tuple"
                }
            ],
            "stateMutability": "nonpayable",
            "type": "function"
        },
        {
            "inputs": [],
            "name": "getNonVerifiedUsers",
            "outputs": [
                {
                    "internalType": "address[]",
                    "name": "_users",
                    "type": "address[]"
                }
            ],
            "stateMutability": "view",
            "type": "function"
        },
        {
            "inputs": [
                {
                    "internalType": "address",
                    "name": "userId",
                    "type": "address"
                }
            ],
            "name": "verifyUser",
            "outputs": [],
            "stateMutability": "nonpayable",
            "type": "function"
        },
        {
            "inputs": [
                {
                    "internalType": "uint256",
                    "name": "_price",
                    "type": "uint256"
                },
                {
                    "internalType": "address payable",
                    "name": "_seller",
                    "type": "address"
                },
                {
                    "internalType": "address",
                    "name": "_buyer",
                    "type": "address"
                }
            ],
            "name": "createShipment",
            "outputs": [],
            "stateMutability": "nonpayable",
            "type": "function"
        },
        {
            "inputs": [
                {
                    "internalType": "uint256",
                    "name": "id",
                    "type": "uint256"
                }
            ],
            "name": "showShipment",
            "outputs": [
                {
                    "components": [
                        {
                            "internalType": "uint256",
                            "name": "id",
                            "type": "uint256"
                        },
                        {
                            "internalType": "enum ShipmentContract.STATUS",
                            "name": "status",
                            "type": "uint8"
                        },
                        {
                            "internalType": "enum ShipmentContract.OWNER",
                            "name": "owner",
                            "type": "uint8"
                        },
                        {
                            "internalType": "address",
                            "name": "ownerId",
                            "type": "address"
                        },
                        {
                            "internalType": "uint256",
                            "name": "price",
                            "type": "uint256"
                        },
                        {
                            "internalType": "address payable",
                            "name": "seller",
                            "type": "address"
                        },
                        {
                            "internalType": "address",
                            "name": "buyer",
                            "type": "address"
                        },
                        {
                            "internalType": "bool",
                            "name": "paid",
                            "type": "bool"
                        },
                        {
                            "internalType": "bool",
                            "name": "customExit",
                            "type": "bool"
                        },
                        {
                            "internalType": "bool",
                            "name": "customEnter",
                            "type": "bool"
                        }
                    ],
                    "internalType": "struct ShipmentContract.Shipment",
                    "name": "_shipment",
                    "type": "tuple"
                }
            ],
            "stateMutability": "view",
            "type": "function"
        },
        {
            "inputs": [
                {
                    "internalType": "uint256",
                    "name": "id",
                    "type": "uint256"
                }
            ],
            "name": "getPrice",
            "outputs": [
                {
                    "internalType": "uint256",
                    "name": "price",
                    "type": "uint256"
                }
            ],
            "stateMutability": "view",
            "type": "function"
        },
        {
            "inputs": [
                {
                    "internalType": "uint256",
                    "name": "_shipment_id",
                    "type": "uint256"
                }
            ],
            "name": "payShipment",
            "outputs": [],
            "stateMutability": "payable",
            "type": "function"
        },
        {
            "inputs": [
                {
                    "internalType": "uint256",
                    "name": "_id",
                    "type": "uint256"
                },
                {
                    "internalType": "address",
                    "name": "newOwner",
                    "type": "address"
                },
                {
                    "internalType": "string",
                    "name": "owner",
                    "type": "string"
                }
            ],
            "name": "transferOwnership",
            "outputs": [],
            "stateMutability": "nonpayable",
            "type": "function"
        },
        {
            "inputs": [
                {
                    "internalType": "uint256",
                    "name": "shipmentId",
                    "type": "uint256"
                }
            ],
            "name": "customExitApproval",
            "outputs": [],
            "stateMutability": "nonpayable",
            "type": "function"
        },
        {
            "inputs": [
                {
                    "internalType": "uint256",
                    "name": "shipmentId",
                    "type": "uint256"
                }
            ],
            "name": "customEntryApproval",
            "outputs": [],
            "stateMutability": "nonpayable",
            "type": "function"
        },
        {
            "inputs": [
                {
                    "internalType": "uint256",
                    "name": "_shipment_id",
                    "type": "uint256"
                }
            ],
            "name": "startShipping",
            "outputs": [],
            "stateMutability": "nonpayable",
            "type": "function"
        },
        {
            "inputs": [
                {
                    "internalType": "uint256",
                    "name": "_shipment_id",
                    "type": "uint256"
                }
            ],
            "name": "getShipmentStatus",
            "outputs": [
                {
                    "internalType": "enum ShipmentContract.STATUS",
                    "name": "_status",
                    "type": "uint8"
                }
            ],
            "stateMutability": "view",
            "type": "function"
        },
        {
            "inputs": [
                {
                    "internalType": "uint256",
                    "name": "_shipment_id",
                    "type": "uint256"
                }
            ],
            "name": "confirmShipment",
            "outputs": [],
            "stateMutability": "nonpayable",
            "type": "function"
        },
        {
            "inputs": [
                {
                    "internalType": "uint256",
                    "name": "_shipmentId",
                    "type": "uint256"
                }
            ],
            "name": "buyerConfirmationOfDelivery",
            "outputs": [],
            "stateMutability": "nonpayable",
            "type": "function"
        }
    ],
    "bytecode": "0x608060405234801561001057600080fd5b50336000806101000a81548173ffffffffffffffffffffffffffffffffffffffff021916908373ffffffffffffffffffffffffffffffffffffffff160217905550613d93806100606000396000f3fe60806040526004361061011b576000357c0100000000000000000000000000000000000000000000000000000000900480635d78a16f116100b2578063d0020fad11610081578063d0020fad14610348578063e0cb8e5f14610385578063e7572230146103ae578063ee21259d146103eb578063f7b78c6b146104285761011b565b80635d78a16f1461028e57806371625641146102b7578063a87430ba146102e0578063aa891f221461031f5761011b565b806337fa1ed2116100ee57806337fa1ed2146101d65780634635fd68146101ff5780634d8131201461023c578063573f6063146102655761011b565b806314636ae3146101205780631fa71fc01461014b5780632ac08a93146101675780632ac21af0146101ad575b600080fd5b34801561012c57600080fd5b50610135610465565b6040516101429190612804565b60405180910390f35b61016560048036038101906101609190612870565b610581565b005b34801561017357600080fd5b5061018e60048036038101906101899190612870565b61080f565b6040516101a49a999897969594939291906129b6565b60405180910390f35b3480156101b957600080fd5b506101d460048036038101906101cf9190612870565b610904565b005b3480156101e257600080fd5b506101fd60048036038101906101f89190612870565b610ab4565b005b34801561020b57600080fd5b5061022660048036038101906102219190612870565b610c36565b6040516102339190612a52565b60405180910390f35b34801561024857600080fd5b50610263600480360381019061025e9190612a99565b610c75565b005b34801561027157600080fd5b5061028c60048036038101906102879190612af2565b610d98565b005b34801561029a57600080fd5b506102b560048036038101906102b09190612870565b611229565b005b3480156102c357600080fd5b506102de60048036038101906102d99190612c8b565b611311565b005b3480156102ec57600080fd5b5061030760048036038101906103029190612a99565b6118e3565b60405161031693929190612d42565b60405180910390f35b34801561032b57600080fd5b5061034660048036038101906103419190612870565b611947565b005b34801561035457600080fd5b5061036f600480360381019061036a9190612d79565b611bad565b60405161037c9190612e22565b60405180910390f35b34801561039157600080fd5b506103ac60048036038101906103a79190612870565b611eb0565b005b3480156103ba57600080fd5b506103d560048036038101906103d09190612870565b612034565b6040516103e29190612e3d565b60405180910390f35b3480156103f757600080fd5b50610412600480360381019061040d9190612870565b612054565b60405161041f9190612e58565b60405180910390f35b34801561043457600080fd5b5061044f600480360381019061044a9190612870565b6120d7565b60405161045c9190612f7b565b60405180910390f35b606060008054906101000a900473ffffffffffffffffffffffffffffffffffffffff1673ffffffffffffffffffffffffffffffffffffffff163273ffffffffffffffffffffffffffffffffffffffff16146104f5576040517f08c379a00000000000000000000000000000000000000000000000000000000081526004016104ec9061301a565b60405180910390fd5b600280548060200260200160405190810160405280929190818152602001828054801561057757602002820191906000526020600020905b8160009054906101000a900473ffffffffffffffffffffffffffffffffffffffff1673ffffffffffffffffffffffffffffffffffffffff168152602001906001019080831161052d575b5050505050905090565b600480811115610594576105936128ac565b5b600460003273ffffffffffffffffffffffffffffffffffffffff1673ffffffffffffffffffffffffffffffffffffffff16815260200190815260200160002060000160149054906101000a900460ff1660048111156105f6576105f56128ac565b5b14610636576040517f08c379a000000000000000000000000000000000000000000000000000000000815260040161062d906130ac565b60405180910390fd5b80600115156003600083815260200190815260200160002060040160149054906101000a900460ff16151514156106a2576040517f08c379a000000000000000000000000000000000000000000000000000000000815260040161069990613118565b60405180910390fd5b600360008381526020019081526020016000206002015434146106fa576040517f08c379a00000000000000000000000000000000000000000000000000000000081526004016106f190613184565b60405180910390fd5b6003600083815260200190815260200160002060030160009054906101000a900473ffffffffffffffffffffffffffffffffffffffff1673ffffffffffffffffffffffffffffffffffffffff166108fc60036000858152602001908152602001600020600201549081150290604051600060405180830381858888f1935050505015801561078c573d6000803e3d6000fd5b5060016003600084815260200190815260200160002060040160146101000a81548160ff0219169083151502179055507fd388765b9bd064da718ad5917b497c98337198ccb68e7f2dad08b581941101728260036000858152602001908152602001600020600201546040516108039291906131a4565b60405180910390a15050565b60036020528060005260406000206000915090508060000154908060010160009054906101000a900460ff16908060010160019054906101000a900460ff16908060010160029054906101000a900473ffffffffffffffffffffffffffffffffffffffff16908060020154908060030160009054906101000a900473ffffffffffffffffffffffffffffffffffffffff16908060040160009054906101000a900473ffffffffffffffffffffffffffffffffffffffff16908060040160149054906101000a900460ff16908060040160159054906101000a900460ff16908060040160169054906101000a900460ff1690508a565b60006004811115610918576109176128ac565b5b600460003273ffffffffffffffffffffffffffffffffffffffff1673ffffffffffffffffffffffffffffffffffffffff16815260200190815260200160002060000160149054906101000a900460ff16600481111561097a576109796128ac565b5b146109ba576040517f08c379a00000000000000000000000000000000000000000000000000000000081526004016109b19061323f565b60405180910390fd5b80600115156003600083815260200190815260200160002060040160149054906101000a900460ff16151514610a25576040517f08c379a0000000000000000000000000000000000000000000000000000000008152600401610a1c906132ab565b60405180910390fd5b60016003600084815260200190815260200160002060040160156101000a81548160ff0219169083151502179055507fa3c7ee303a38eeead983049988cdad66c316c6127213c7b00db1540d9a33845a826003600085815260200190815260200160002060040160159054906101000a900460ff16604051610aa89291906132cb565b60405180910390a15050565b600480811115610ac757610ac66128ac565b5b600460003273ffffffffffffffffffffffffffffffffffffffff1673ffffffffffffffffffffffffffffffffffffffff16815260200190815260200160002060000160149054906101000a900460ff166004811115610b2957610b286128ac565b5b14610b69576040517f08c379a0000000000000000000000000000000000000000000000000000000008152600401610b60906130ac565b60405180910390fd5b8060026003811115610b7e57610b7d6128ac565b5b6003600083815260200190815260200160002060010160009054906101000a900460ff166003811115610bb457610bb36128ac565b5b14610bf4576040517f08c379a0000000000000000000000000000000000000000000000000000000008152600401610beb90613366565b60405180910390fd5b600380600084815260200190815260200160002060010160006101000a81548160ff02191690836003811115610c2d57610c2c6128ac565b5b02179055505050565b60028181548110610c4657600080fd5b906000526020600020016000915054906101000a900473ffffffffffffffffffffffffffffffffffffffff1681565b60008054906101000a900473ffffffffffffffffffffffffffffffffffffffff1673ffffffffffffffffffffffffffffffffffffffff163273ffffffffffffffffffffffffffffffffffffffff1614610d03576040517f08c379a0000000000000000000000000000000000000000000000000000000008152600401610cfa9061301a565b60405180910390fd5b6001600460008373ffffffffffffffffffffffffffffffffffffffff1673ffffffffffffffffffffffffffffffffffffffff16815260200190815260200160002060000160156101000a81548160ff0219169083151502179055507f2a5effbcc0d15a981fe0f4b1e4d0c5a8cd604a70619f51f91898b3aa0344885781604051610d8d9190612a52565b60405180910390a150565b60016004811115610dac57610dab6128ac565b5b600460003273ffffffffffffffffffffffffffffffffffffffff1673ffffffffffffffffffffffffffffffffffffffff16815260200190815260200160002060000160149054906101000a900460ff166004811115610e0e57610e0d6128ac565b5b14610e4e576040517f08c379a0000000000000000000000000000000000000000000000000000000008152600401610e45906133f8565b60405180910390fd5b600460008373ffffffffffffffffffffffffffffffffffffffff1673ffffffffffffffffffffffffffffffffffffffff16815260200190815260200160002060000160159054906101000a900460ff168015610ef65750600460008273ffffffffffffffffffffffffffffffffffffffff1673ffffffffffffffffffffffffffffffffffffffff16815260200190815260200160002060000160159054906101000a900460ff165b610f35576040517f08c379a0000000000000000000000000000000000000000000000000000000008152600401610f2c9061348a565b60405180910390fd5b600060018054905090506001819080600181540180825580915050600190039060005260206000200160009091909190915055600060405180610140016040528083815260200160006003811115610f9057610f8f6128ac565b5b815260200160006002811115610fa957610fa86128ac565b5b81526020018573ffffffffffffffffffffffffffffffffffffffff1681526020018681526020018573ffffffffffffffffffffffffffffffffffffffff1681526020018473ffffffffffffffffffffffffffffffffffffffff16815260200160001515815260200160001515815260200160001515815250905080600360008481526020019081526020016000206000820151816000015560208201518160010160006101000a81548160ff0219169083600381111561106c5761106b6128ac565b5b021790555060408201518160010160016101000a81548160ff0219169083600281111561109c5761109b6128ac565b5b021790555060608201518160010160026101000a81548173ffffffffffffffffffffffffffffffffffffffff021916908373ffffffffffffffffffffffffffffffffffffffff1602179055506080820151816002015560a08201518160030160006101000a81548173ffffffffffffffffffffffffffffffffffffffff021916908373ffffffffffffffffffffffffffffffffffffffff16021790555060c08201518160040160006101000a81548173ffffffffffffffffffffffffffffffffffffffff021916908373ffffffffffffffffffffffffffffffffffffffff16021790555060e08201518160040160146101000a81548160ff0219169083151502179055506101008201518160040160156101000a81548160ff0219169083151502179055506101208201518160040160166101000a81548160ff0219169083151502179055509050507f72b77914678fd036e7615dffab97a6c337d817f320dd082675c548ff4c572ce48286868660405161121a9493929190613509565b60405180910390a15050505050565b6000600481111561123d5761123c6128ac565b5b600460003273ffffffffffffffffffffffffffffffffffffffff1673ffffffffffffffffffffffffffffffffffffffff16815260200190815260200160002060000160149054906101000a900460ff16600481111561129f5761129e6128ac565b5b146112df576040517f08c379a00000000000000000000000000000000000000000000000000000000081526004016112d69061323f565b60405180910390fd5b60016003600083815260200190815260200160002060040160166101000a81548160ff02191690831515021790555050565b60016004811115611325576113246128ac565b5b600460003273ffffffffffffffffffffffffffffffffffffffff1673ffffffffffffffffffffffffffffffffffffffff16815260200190815260200160002060000160149054906101000a900460ff166004811115611387576113866128ac565b5b146113c7576040517f08c379a00000000000000000000000000000000000000000000000000000000081526004016113be906133f8565b60405180910390fd5b600460008373ffffffffffffffffffffffffffffffffffffffff1673ffffffffffffffffffffffffffffffffffffffff16815260200190815260200160002060000160159054906101000a900460ff16611456576040517f08c379a000000000000000000000000000000000000000000000000000000000815260040161144d906135c0565b60405180910390fd5b600061146182612338565b905060006003600086815260200190815260200160002060405180610140016040529081600082015481526020016001820160009054906101000a900460ff1660038111156114b3576114b26128ac565b5b60038111156114c5576114c46128ac565b5b81526020016001820160019054906101000a900460ff1660028111156114ee576114ed6128ac565b5b6002811115611500576114ff6128ac565b5b81526020016001820160029054906101000a900473ffffffffffffffffffffffffffffffffffffffff1673ffffffffffffffffffffffffffffffffffffffff1673ffffffffffffffffffffffffffffffffffffffff168152602001600282015481526020016003820160009054906101000a900473ffffffffffffffffffffffffffffffffffffffff1673ffffffffffffffffffffffffffffffffffffffff1673ffffffffffffffffffffffffffffffffffffffff1681526020016004820160009054906101000a900473ffffffffffffffffffffffffffffffffffffffff1673ffffffffffffffffffffffffffffffffffffffff1673ffffffffffffffffffffffffffffffffffffffff1681526020016004820160149054906101000a900460ff161515151581526020016004820160159054906101000a900460ff161515151581526020016004820160169054906101000a900460ff1615151515815250509050818160400190600281111561167b5761167a6128ac565b5b9081600281111561168f5761168e6128ac565b5b8152505083816060019073ffffffffffffffffffffffffffffffffffffffff16908173ffffffffffffffffffffffffffffffffffffffff168152505080600360008781526020019081526020016000206000820151816000015560208201518160010160006101000a81548160ff02191690836003811115611714576117136128ac565b5b021790555060408201518160010160016101000a81548160ff02191690836002811115611744576117436128ac565b5b021790555060608201518160010160026101000a81548173ffffffffffffffffffffffffffffffffffffffff021916908373ffffffffffffffffffffffffffffffffffffffff1602179055506080820151816002015560a08201518160030160006101000a81548173ffffffffffffffffffffffffffffffffffffffff021916908373ffffffffffffffffffffffffffffffffffffffff16021790555060c08201518160040160006101000a81548173ffffffffffffffffffffffffffffffffffffffff021916908373ffffffffffffffffffffffffffffffffffffffff16021790555060e08201518160040160146101000a81548160ff0219169083151502179055506101008201518160040160156101000a81548160ff0219169083151502179055506101208201518160040160166101000a81548160ff0219169083151502179055509050507f51cbbcd8bb5747b91b2509bf7da55a903c591e80bd643b6e53675c88858337f68582608001518360a001518460c0015185606001516040516118d49594939291906135e0565b60405180910390a15050505050565b60046020528060005260406000206000915090508060000160009054906101000a900473ffffffffffffffffffffffffffffffffffffffff16908060000160149054906101000a900460ff16908060000160159054906101000a900460ff16905083565b6001600481111561195b5761195a6128ac565b5b600460003273ffffffffffffffffffffffffffffffffffffffff1673ffffffffffffffffffffffffffffffffffffffff16815260200190815260200160002060000160149054906101000a900460ff1660048111156119bd576119bc6128ac565b5b146119fd576040517f08c379a00000000000000000000000000000000000000000000000000000000081526004016119f4906133f8565b60405180910390fd5b80600115156003600083815260200190815260200160002060040160159054906101000a900460ff16151514611a68576040517f08c379a0000000000000000000000000000000000000000000000000000000008152600401611a5f906136a5565b60405180910390fd5b8160006003811115611a7d57611a7c6128ac565b5b6003600083815260200190815260200160002060010160009054906101000a900460ff166003811115611ab357611ab26128ac565b5b14611af3576040517f08c379a0000000000000000000000000000000000000000000000000000000008152600401611aea90613737565b60405180910390fd5b600060036000858152602001908152602001600020905060018160010160006101000a81548160ff02191690836003811115611b3257611b316128ac565b5b02179055507fb9d9530104ebd54d271f1107e2e7d2af3bbcb545d9c7a96c163bb94d4a1c0fb5848260010160029054906101000a900473ffffffffffffffffffffffffffffffffffffffff168360010160009054906101000a900460ff16604051611b9f93929190613757565b60405180910390a150505050565b611bb561260a565b60008054906101000a900473ffffffffffffffffffffffffffffffffffffffff1673ffffffffffffffffffffffffffffffffffffffff163273ffffffffffffffffffffffffffffffffffffffff161415611c44576040517f08c379a0000000000000000000000000000000000000000000000000000000008152600401611c3b90613800565b60405180910390fd5b60011515600460003273ffffffffffffffffffffffffffffffffffffffff1673ffffffffffffffffffffffffffffffffffffffff16815260200190815260200160002060000160159054906101000a900460ff1615151415611cdb576040517f08c379a0000000000000000000000000000000000000000000000000000000008152600401611cd29061386c565b60405180910390fd5b6002339080600181540180825580915050600190039060005260206000200160009091909190916101000a81548173ffffffffffffffffffffffffffffffffffffffff021916908373ffffffffffffffffffffffffffffffffffffffff1602179055506000611d498361245e565b9050600060405180606001604052803373ffffffffffffffffffffffffffffffffffffffff168152602001836004811115611d8757611d866128ac565b5b815260200160001515815250905080600460003373ffffffffffffffffffffffffffffffffffffffff1673ffffffffffffffffffffffffffffffffffffffff16815260200190815260200160002060008201518160000160006101000a81548173ffffffffffffffffffffffffffffffffffffffff021916908373ffffffffffffffffffffffffffffffffffffffff16021790555060208201518160000160146101000a81548160ff02191690836004811115611e4757611e466128ac565b5b021790555060408201518160000160156101000a81548160ff0219169083151502179055509050507fdf54227b669e96e69d8f583a07d577cb4081ab69c78dbcff8fce5af67e1ac54633604051611e9e9190612a52565b60405180910390a18092505050919050565b60016004811115611ec457611ec36128ac565b5b600460003273ffffffffffffffffffffffffffffffffffffffff1673ffffffffffffffffffffffffffffffffffffffff16815260200190815260200160002060000160149054906101000a900460ff166004811115611f2657611f256128ac565b5b14611f66576040517f08c379a0000000000000000000000000000000000000000000000000000000008152600401611f5d906133f8565b60405180910390fd5b8060016003811115611f7b57611f7a6128ac565b5b6003600083815260200190815260200160002060010160009054906101000a900460ff166003811115611fb157611fb06128ac565b5b14611ff1576040517f08c379a0000000000000000000000000000000000000000000000000000000008152600401611fe8906138fe565b60405180910390fd5b60026003600084815260200190815260200160002060010160006101000a81548160ff0219169083600381111561202b5761202a6128ac565b5b02179055505050565b600060036000838152602001908152602001600020600201549050919050565b600081600181612064919061394d565b60018054905010156120ab576040517f08c379a00000000000000000000000000000000000000000000000000000000081526004016120a2906139ef565b60405180910390fd5b6003600084815260200190815260200160002060010160009054906101000a900460ff16915050919050565b6120df612655565b816001816120ed919061394d565b6001805490501015612134576040517f08c379a000000000000000000000000000000000000000000000000000000000815260040161212b906139ef565b60405180910390fd5b6003600084815260200190815260200160002060405180610140016040529081600082015481526020016001820160009054906101000a900460ff166003811115612182576121816128ac565b5b6003811115612194576121936128ac565b5b81526020016001820160019054906101000a900460ff1660028111156121bd576121bc6128ac565b5b60028111156121cf576121ce6128ac565b5b81526020016001820160029054906101000a900473ffffffffffffffffffffffffffffffffffffffff1673ffffffffffffffffffffffffffffffffffffffff1673ffffffffffffffffffffffffffffffffffffffff168152602001600282015481526020016003820160009054906101000a900473ffffffffffffffffffffffffffffffffffffffff1673ffffffffffffffffffffffffffffffffffffffff1673ffffffffffffffffffffffffffffffffffffffff1681526020016004820160009054906101000a900473ffffffffffffffffffffffffffffffffffffffff1673ffffffffffffffffffffffffffffffffffffffff1673ffffffffffffffffffffffffffffffffffffffff1681526020016004820160149054906101000a900460ff161515151581526020016004820160159054906101000a900460ff161515151581526020016004820160169054906101000a900460ff161515151581525050915050919050565b6000808260405160200161234c9190613a89565b604051602081830303815290604052805190602001209050600060405160200161237590613aec565b604051602081830303815290604052805190602001209050600060405160200161239e90613b4d565b60405160208183030381529060405280519060200120905060006040516020016123c790613bae565b604051602081830303815290604052805190602001209050828414156123f4576000945050505050612459565b81841415612409576001945050505050612459565b8084141561241e576002945050505050612459565b6040517f08c379a000000000000000000000000000000000000000000000000000000000815260040161245090613c0f565b60405180910390fd5b919050565b600080826040516020016124729190613a89565b604051602081830303815290604052805190602001209050600060405160200161249b90613aec565b60405160208183030381529060405280519060200120905060006040516020016124c490613b4d565b60405160208183030381529060405280519060200120905060006040516020016124ed90613bae565b604051602081830303815290604052805190602001209050600060405160200161251690613c7b565b604051602081830303815290604052805190602001209050600060405160200161253f90613cdc565b6040516020818303038152906040528051906020012090508486141561256e5760029650505050505050612605565b838614156125855760039650505050505050612605565b8286141561259c5760049650505050505050612605565b818614156125b35760009650505050505050612605565b808614156125ca5760019650505050505050612605565b6040517f08c379a00000000000000000000000000000000000000000000000000000000081526004016125fc90613d3d565b60405180910390fd5b919050565b6040518060600160405280600073ffffffffffffffffffffffffffffffffffffffff16815260200160006004811115612646576126456128ac565b5b81526020016000151581525090565b604051806101400160405280600081526020016000600381111561267c5761267b6128ac565b5b815260200160006002811115612695576126946128ac565b5b8152602001600073ffffffffffffffffffffffffffffffffffffffff16815260200160008152602001600073ffffffffffffffffffffffffffffffffffffffff168152602001600073ffffffffffffffffffffffffffffffffffffffff1681526020016000151581526020016000151581526020016000151581525090565b600081519050919050565b600082825260208201905092915050565b6000819050602082019050919050565b600073ffffffffffffffffffffffffffffffffffffffff82169050919050565b600061276b82612740565b9050919050565b61277b81612760565b82525050565b600061278d8383612772565b60208301905092915050565b6000602082019050919050565b60006127b182612714565b6127bb818561271f565b93506127c683612730565b8060005b838110156127f75781516127de8882612781565b97506127e983612799565b9250506001810190506127ca565b5085935050505092915050565b6000602082019050818103600083015261281e81846127a6565b905092915050565b6000604051905090565b600080fd5b600080fd5b6000819050919050565b61284d8161283a565b811461285857600080fd5b50565b60008135905061286a81612844565b92915050565b60006020828403121561288657612885612830565b5b60006128948482850161285b565b91505092915050565b6128a68161283a565b82525050565b7f4e487b7100000000000000000000000000000000000000000000000000000000600052602160045260246000fd5b600481106128ec576128eb6128ac565b5b50565b60008190506128fd826128db565b919050565b600061290d826128ef565b9050919050565b61291d81612902565b82525050565b60038110612934576129336128ac565b5b50565b600081905061294582612923565b919050565b600061295582612937565b9050919050565b6129658161294a565b82525050565b61297481612760565b82525050565b600061298582612740565b9050919050565b6129958161297a565b82525050565b60008115159050919050565b6129b08161299b565b82525050565b6000610140820190506129cc600083018d61289d565b6129d9602083018c612914565b6129e6604083018b61295c565b6129f3606083018a61296b565b612a00608083018961289d565b612a0d60a083018861298c565b612a1a60c083018761296b565b612a2760e08301866129a7565b612a356101008301856129a7565b612a436101208301846129a7565b9b9a5050505050505050505050565b6000602082019050612a67600083018461296b565b92915050565b612a7681612760565b8114612a8157600080fd5b50565b600081359050612a9381612a6d565b92915050565b600060208284031215612aaf57612aae612830565b5b6000612abd84828501612a84565b91505092915050565b612acf8161297a565b8114612ada57600080fd5b50565b600081359050612aec81612ac6565b92915050565b600080600060608486031215612b0b57612b0a612830565b5b6000612b198682870161285b565b9350506020612b2a86828701612add565b9250506040612b3b86828701612a84565b9150509250925092565b600080fd5b600080fd5b6000601f19601f8301169050919050565b7f4e487b7100000000000000000000000000000000000000000000000000000000600052604160045260246000fd5b612b9882612b4f565b810181811067ffffffffffffffff82111715612bb757612bb6612b60565b5b80604052505050565b6000612bca612826565b9050612bd68282612b8f565b919050565b600067ffffffffffffffff821115612bf657612bf5612b60565b5b612bff82612b4f565b9050602081019050919050565b82818337600083830152505050565b6000612c2e612c2984612bdb565b612bc0565b905082815260208101848484011115612c4a57612c49612b4a565b5b612c55848285612c0c565b509392505050565b600082601f830112612c7257612c71612b45565b5b8135612c82848260208601612c1b565b91505092915050565b600080600060608486031215612ca457612ca3612830565b5b6000612cb28682870161285b565b9350506020612cc386828701612a84565b925050604084013567ffffffffffffffff811115612ce457612ce3612835565b5b612cf086828701612c5d565b9150509250925092565b60058110612d0b57612d0a6128ac565b5b50565b6000819050612d1c82612cfa565b919050565b6000612d2c82612d0e565b9050919050565b612d3c81612d21565b82525050565b6000606082019050612d57600083018661296b565b612d646020830185612d33565b612d7160408301846129a7565b949350505050565b600060208284031215612d8f57612d8e612830565b5b600082013567ffffffffffffffff811115612dad57612dac612835565b5b612db984828501612c5d565b91505092915050565b612dcb81612d21565b82525050565b612dda8161299b565b82525050565b606082016000820151612df66000850182612772565b506020820151612e096020850182612dc2565b506040820151612e1c6040850182612dd1565b50505050565b6000606082019050612e376000830184612de0565b92915050565b6000602082019050612e52600083018461289d565b92915050565b6000602082019050612e6d6000830184612914565b92915050565b612e7c8161283a565b82525050565b612e8b81612902565b82525050565b612e9a8161294a565b82525050565b612ea98161297a565b82525050565b61014082016000820151612ec66000850182612e73565b506020820151612ed96020850182612e82565b506040820151612eec6040850182612e91565b506060820151612eff6060850182612772565b506080820151612f126080850182612e73565b5060a0820151612f2560a0850182612ea0565b5060c0820151612f3860c0850182612772565b5060e0820151612f4b60e0850182612dd1565b50610100820151612f60610100850182612dd1565b50610120820151612f75610120850182612dd1565b50505050565b600061014082019050612f916000830184612eaf565b92915050565b600082825260208201905092915050565b7f4f6e6c792061646d696e7320616c6c6f77656420746f20646f2073756368206160008201527f2066756e6374696f6e0000000000000000000000000000000000000000000000602082015250565b6000613004602983612f97565b915061300f82612fa8565b604082019050919050565b6000602082019050818103600083015261303381612ff7565b9050919050565b7f4f6e6c7920427579657220616c6c6f77656420746f20646f207375636820612060008201527f66756e6374696f6e000000000000000000000000000000000000000000000000602082015250565b6000613096602883612f97565b91506130a18261303a565b604082019050919050565b600060208201905081810360008301526130c581613089565b9050919050565b7f536869706d656e7420616c726561647920706169640000000000000000000000600082015250565b6000613102601583612f97565b915061310d826130cc565b602082019050919050565b60006020820190508181036000830152613131816130f5565b9050919050565b7f736d616c6c657200000000000000000000000000000000000000000000000000600082015250565b600061316e600783612f97565b915061317982613138565b602082019050919050565b6000602082019050818103600083015261319d81613161565b9050919050565b60006040820190506131b9600083018561289d565b6131c6602083018461289d565b9392505050565b7f4f6e6c7920437573746f6d7320616c6c6f77656420746f20646f20737563682060008201527f612066756e6374696f6e00000000000000000000000000000000000000000000602082015250565b6000613229602a83612f97565b9150613234826131cd565b604082019050919050565b600060208201905081810360008301526132588161321c565b9050919050565b7f536869706d656e74206e6f742070616964000000000000000000000000000000600082015250565b6000613295601183612f97565b91506132a08261325f565b602082019050919050565b600060208201905081810360008301526132c481613288565b9050919050565b60006040820190506132e0600083018561289d565b6132ed60208301846129a7565b9392505050565b7f536869706d656e74207374617475732068617320746f2062652073686970706560008201527f6420746f20646f207375636820616e20616374696f6e00000000000000000000602082015250565b6000613350603683612f97565b915061335b826132f4565b604082019050919050565b6000602082019050818103600083015261337f81613343565b9050919050565b7f4f6e6c79206c6f6769737469637320616c6c6f77656420746f20646f2073756360008201527f6820612066756e6374696f6e0000000000000000000000000000000000000000602082015250565b60006133e2602c83612f97565b91506133ed82613386565b604082019050919050565b60006020820190508181036000830152613411816133d5565b9050919050565b7f536869706d656e74207573657273206e6f7420666f756e64206f72206e6f742060008201527f7965742076657269666965640000000000000000000000000000000000000000602082015250565b6000613474602c83612f97565b915061347f82613418565b604082019050919050565b600060208201905081810360008301526134a381613467565b9050919050565b6000819050919050565b60006134cf6134ca6134c584612740565b6134aa565b612740565b9050919050565b60006134e1826134b4565b9050919050565b60006134f3826134d6565b9050919050565b613503816134e8565b82525050565b600060808201905061351e600083018761289d565b61352b602083018661289d565b61353860408301856134fa565b613545606083018461296b565b95945050505050565b7f4e65772075736572206e6f742072656769737465726564206f72206e6f74207960008201527f6574207665726966696564000000000000000000000000000000000000000000602082015250565b60006135aa602b83612f97565b91506135b58261354e565b604082019050919050565b600060208201905081810360008301526135d98161359d565b9050919050565b600060a0820190506135f5600083018861289d565b613602602083018761289d565b61360f60408301866134fa565b61361c606083018561296b565b613629608083018461296b565b9695505050505050565b7f437573746f6d732073686f756c6420617070726f766520736869706d656e742060008201527f6578697400000000000000000000000000000000000000000000000000000000602082015250565b600061368f602483612f97565b915061369a82613633565b604082019050919050565b600060208201905081810360008301526136be81613682565b9050919050565b7f536869706d656e74207374617475732068617320746f2062652070656e64696e60008201527f6720746f20646f207375636820616e20616374696f6e00000000000000000000602082015250565b6000613721603683612f97565b915061372c826136c5565b604082019050919050565b6000602082019050818103600083015261375081613714565b9050919050565b600060608201905061376c600083018661289d565b613779602083018561296b565b6137866040830184612914565b949350505050565b7f41646d696e7320617265206e6f7420616c6c6f77656420746f20646f2073756360008201527f6820612066756e6374696f6e0000000000000000000000000000000000000000602082015250565b60006137ea602c83612f97565b91506137f58261378e565b604082019050919050565b60006020820190508181036000830152613819816137dd565b9050919050565b7f5573657220616c72656164792065786973747300000000000000000000000000600082015250565b6000613856601383612f97565b915061386182613820565b602082019050919050565b6000602082019050818103600083015261388581613849565b9050919050565b7f536869706d656e74207374617475732068617320746f2062652073686970706960008201527f6e6720746f20646f207375636820616e20616374696f6e000000000000000000602082015250565b60006138e8603783612f97565b91506138f38261388c565b604082019050919050565b60006020820190508181036000830152613917816138db565b9050919050565b7f4e487b7100000000000000000000000000000000000000000000000000000000600052601160045260246000fd5b60006139588261283a565b91506139638361283a565b9250827fffffffffffffffffffffffffffffffffffffffffffffffffffffffffffffffff038211156139985761399761391e565b5b828201905092915050565b7f4e6f207375636820494400000000000000000000000000000000000000000000600082015250565b60006139d9600a83612f97565b91506139e4826139a3565b602082019050919050565b60006020820190508181036000830152613a08816139cc565b9050919050565b600081519050919050565b600081905092915050565b60005b83811015613a43578082015181840152602081019050613a28565b83811115613a52576000848401525b50505050565b6000613a6382613a0f565b613a6d8185613a1a565b9350613a7d818560208601613a25565b80840191505092915050565b6000613a958284613a58565b915081905092915050565b7f53454c4c45520000000000000000000000000000000000000000000000000000600082015250565b6000613ad6600683613a1a565b9150613ae182613aa0565b600682019050919050565b6000613af782613ac9565b9150819050919050565b7f4341525249455200000000000000000000000000000000000000000000000000600082015250565b6000613b37600783613a1a565b9150613b4282613b01565b600782019050919050565b6000613b5882613b2a565b9150819050919050565b7f4255594552000000000000000000000000000000000000000000000000000000600082015250565b6000613b98600583613a1a565b9150613ba382613b62565b600582019050919050565b6000613bb982613b8b565b9150819050919050565b7f526563696576656420612077726f6e672074797065206f66206f776e65720000600082015250565b6000613bf9601e83612f97565b9150613c0482613bc3565b602082019050919050565b60006020820190508181036000830152613c2881613bec565b9050919050565b7f435553544f4d0000000000000000000000000000000000000000000000000000600082015250565b6000613c65600683613a1a565b9150613c7082613c2f565b600682019050919050565b6000613c8682613c58565b9150819050919050565b7f4c4f474953544943530000000000000000000000000000000000000000000000600082015250565b6000613cc6600983613a1a565b9150613cd182613c90565b600982019050919050565b6000613ce782613cb9565b9150819050919050565b7f526563696576656420612077726f6e672074797065206f662075736572000000600082015250565b6000613d27601d83612f97565b9150613d3282613cf1565b602082019050919050565b60006020820190508181036000830152613d5681613d1a565b905091905056fea26469706673582212204f54ef6d6609bb351d2cecacde0eebc9edd533e8844a778507fecefde344bc3e64736f6c634300080b0033",
    "immutableReferences": {},
    "source": "// SPDX-License-Identifier: MIT\npragma solidity 0.8.11;\n\ncontract ShipmentContract{\n    \n    //============ ENUMS\n    enum STATUS{ PENDING,SHIPPING, SHIPPED, DELIVERED }\n    enum OWNER{ SELLER, CARRIER, BUYER }\n    enum ROLE{ CUSTOM, LOGISTICS, SELLER, CARRIER, BUYER}\n\n    //============ STRUCTS\n    struct Shipment {\n        uint id;\n        STATUS status;\n        OWNER owner;\n        address ownerId;\n        uint price;\n        address payable seller;\n        address buyer;\n        bool paid;\n        bool customExit;\n        bool customEnter;\n    }\n\n    struct User{\n        address id;\n        ROLE role;\n        bool isVerified;\n    }\n\n    //============ VARIABLES\n    address private admin;\n    uint[] private shipmentIds;\n    address[] public userIds;\n    mapping(uint => Shipment) public shipments;\n    mapping(address => User) public users;\n\n    //============ CONSTRUCTOR\n    constructor(){\n        admin = msg.sender;\n    }\n\n    //============ EVENTS\n    event CreateUser(address userID);\n    event VerifyUser(address userID);\n    event CreateShipment(uint id, uint price, address seller, address buyer);\n    event TransferOwnership(uint id, uint price, address seller, address buyer, address ownerId);\n    event CustomExitApproval(uint id, bool customApproved);\n    event ShipmentPaid(uint id, uint price);\n    event StartShipping(uint id, address ownerId, STATUS status);\n\n    //============ MODIFIERS\n    modifier onlyAdmin(){\n        require(tx.origin == admin,\"Only admins allowed to do such a function\");\n        _;\n    }\n    modifier non_users(){\n        require(users[tx.origin].isVerified != true, \"User already exists\");\n        _;\n    }\n    modifier onlyUsers(){\n        require(users[tx.origin].isVerified == true , \"User doesnt exists\");\n        _;\n    }\n    modifier noneAdmin(){\n        require(tx.origin != admin,\"Admins are not allowed to do such a function\");\n        _;\n    }\n    modifier onlyPaid(uint _shipment_id){\n        require(shipments[_shipment_id].paid == true,\"Shipment not paid\");\n        _;\n    }\n    modifier notPaid(uint _shipment_id){\n        require(shipments[_shipment_id].paid != true,\"Shipment already paid\");\n        _;\n    }\n    modifier onlyLogistics(){\n        require(users[tx.origin].role == ROLE.LOGISTICS,\"Only logistics allowed to do such a function\");\n        _;\n    }\n    modifier onlyCustom(){\n        require(users[tx.origin].role == ROLE.CUSTOM,\"Only Customs allowed to do such a function\");\n        _;\n    }\n    modifier onlyBuyer(){\n        require(users[tx.origin].role == ROLE.BUYER,\"Only Buyer allowed to do such a function\");\n        _;\n    }\n    modifier VerifyShipmentId(uint _id){\n        require(shipmentIds.length >= _id + 1, \"No such ID\");\n        _;\n    }\n    modifier customApprovedExit(uint _shipmentId){\n        require(shipments[_shipmentId].customExit == true, \"Customs should approve shipment exit\");\n        _;\n    }\n    modifier customApprovedEntry(uint _shipmentId){\n        require(shipments[_shipmentId].customEnter == true, \"Customs should approve shipment entry\");\n        _;\n    }\n    modifier shipmentStatusPending(uint _shipmentId){\n        require(shipments[_shipmentId].status == STATUS.PENDING, \"Shipment status has to be pending to do such an action\");\n        _;\n    }\n    modifier shipmentStatusShipping(uint _shipmentId){\n        require(shipments[_shipmentId].status == STATUS.SHIPPING, \"Shipment status has to be shipping to do such an action\");\n        _;\n    }\n    modifier shipmentStatusShipped(uint _shipmentId){\n        require(shipments[_shipmentId].status == STATUS.SHIPPED, \"Shipment status has to be shipped to do such an action\");\n        _;\n    }\n\n    //============ FUNCTIONS\n    function setUser(string memory role) external noneAdmin non_users returns(User memory userC){\n        userIds.push(msg.sender);\n        ROLE userType = parsingToUser(role);\n        User memory user = User(\n            msg.sender,\n            userType,\n            false\n        );\n        users[msg.sender] = user;\n        emit CreateUser(msg.sender);\n        return user;\n    }\n\n    function getNonVerifiedUsers() external view onlyAdmin returns(address[] memory _users){\n        return userIds;\n    }\n\n    function verifyUser(address userId) external onlyAdmin{\n        users[userId].isVerified = true;\n        emit VerifyUser(userId);\n    }\n\n    function createShipment(\n        uint _price, \n        address payable _seller, \n        address _buyer\n        ) \n        external \n        onlyLogistics\n    {\n        require(users[_seller].isVerified && users[_buyer].isVerified,\"Shipment users not found or not yet verified\");\n        uint _id = shipmentIds.length;\n        shipmentIds.push(_id);\n        Shipment memory shipment = \n            Shipment(\n                    _id, \n                    STATUS.PENDING,\n                    OWNER.SELLER,\n                    _seller,\n                    _price,\n                    _seller,\n                    _buyer,\n                    false,\n                    false,\n                    false\n            );\n        shipments[_id] = shipment;\n        emit CreateShipment(_id,_price,_seller, _buyer);\n    }\n    \n    function showShipment(uint id) \n    external view \n    VerifyShipmentId(id)\n    returns(Shipment memory _shipment )\n    {\n        return (shipments[id]);\n    }\n\n    function getPrice(uint id) external view returns(uint price){\n        return shipments[id].price;\n    }\n\n    function payShipment(uint _shipment_id) external payable onlyBuyer notPaid(_shipment_id){    \n        \n        require(msg.value == shipments[_shipment_id].price, \"smaller\");\n        // require(msg.value < shipments[_shipment_id].price, \"bigger\");\n        shipments[_shipment_id].seller.transfer(shipments[_shipment_id].price);\n        shipments[_shipment_id].paid = true;\n        emit ShipmentPaid(_shipment_id, shipments[_shipment_id].price);\n    }\n\n    function transferOwnership(uint _id, address newOwner, string memory owner) external onlyLogistics {\n        require(users[newOwner].isVerified, \"New user not registered or not yet verified\");\n        OWNER _owner = parsingToOwner(owner);\n        Shipment memory shipment = shipments[_id];\n        shipment.owner = _owner;\n        shipment.ownerId = newOwner;\n        shipments[_id] = shipment;\n        emit TransferOwnership(_id,shipment.price,shipment.seller, shipment.buyer, shipment.ownerId);\n    }\n\n    function customExitApproval(uint shipmentId) external onlyCustom onlyPaid(shipmentId){\n        shipments[shipmentId].customExit = true;\n        emit CustomExitApproval(shipmentId, shipments[shipmentId].customExit);\n    }\n\n    function customEntryApproval(uint shipmentId) external onlyCustom{\n        shipments[shipmentId].customEnter = true;\n    }\n\n    function startShipping(uint _shipment_id)\n             external\n             onlyLogistics\n             customApprovedExit(_shipment_id)\n             shipmentStatusPending(_shipment_id)\n    {\n        Shipment storage shipment = shipments[_shipment_id]; \n        shipment.status = STATUS.SHIPPING;\n        emit StartShipping( _shipment_id, shipment.ownerId, shipment.status);\n    }    \n\n    function getShipmentStatus(uint _shipment_id) external view VerifyShipmentId(_shipment_id) returns(STATUS _status){\n        return (shipments[_shipment_id].status);\n    }\n\n    function confirmShipment(uint _shipment_id) external onlyLogistics shipmentStatusShipping(_shipment_id){\n        shipments[_shipment_id].status = STATUS.SHIPPED;\n    }\n\n    function buyerConfirmationOfDelivery(uint _shipmentId)external onlyBuyer shipmentStatusShipped(_shipmentId){\n        shipments[_shipmentId].status = STATUS.DELIVERED;\n    }\n\n    //============ PARSING\n    function parsingToOwner(string memory _owner) private pure returns(OWNER _ownerValue){\n        bytes32 encodedOwner = keccak256(abi.encodePacked(_owner));\n        bytes32 encodedSeller = keccak256(abi.encodePacked(\"SELLER\"));\n        bytes32 encodedCarrier = keccak256(abi.encodePacked(\"CARRIER\"));\n        bytes32 encodedBuyer = keccak256(abi.encodePacked(\"BUYER\"));\n        if(encodedOwner == encodedSeller){\n            return OWNER.SELLER;\n        }\n        if(encodedOwner == encodedCarrier){\n            return OWNER.CARRIER;\n        }\n        if(encodedOwner == encodedBuyer){\n            return OWNER.BUYER;\n        }\n\n        revert(\"Recieved a wrong type of owner\");\n    }\n\n    function parsingToUser(string memory _user) private pure returns(ROLE _userValue){\n        bytes32 encodedUser = keccak256(abi.encodePacked(_user));\n        bytes32 encodedSeller = keccak256(abi.encodePacked(\"SELLER\"));\n        bytes32 encodedCarrier = keccak256(abi.encodePacked(\"CARRIER\"));\n        bytes32 encodedBuyer = keccak256(abi.encodePacked(\"BUYER\"));\n        bytes32 encodedCustom = keccak256(abi.encodePacked(\"CUSTOM\"));\n        bytes32 encodedLogistics = keccak256(abi.encodePacked(\"LOGISTICS\"));\n        if(encodedUser == encodedSeller){\n            return ROLE.SELLER;\n        }\n        if(encodedUser == encodedCarrier){\n            return ROLE.CARRIER;\n        }\n        if(encodedUser == encodedBuyer){\n            return ROLE.BUYER;\n        }\n        if(encodedUser == encodedCustom){\n            return ROLE.CUSTOM;\n        }\n        if(encodedUser == encodedLogistics){\n            return ROLE.LOGISTICS;\n        }\n        revert(\"Recieved a wrong type of user\");\n    }\n    function parsingToStatus(string memory _status) private pure returns(STATUS _statusValue){\n        bytes32 encodedUser = keccak256(abi.encodePacked(_status));\n        bytes32 encodedPending = keccak256(abi.encodePacked(\"PENDING\"));\n        bytes32 encodedShipped = keccak256(abi.encodePacked(\"SHIPPED\"));\n        bytes32 encodedDelivered = keccak256(abi.encodePacked(\"DELIVERED\"));\n        if(encodedUser == encodedPending){\n            return STATUS.PENDING;\n        }\n        if(encodedUser == encodedShipped){\n            return STATUS.SHIPPED;\n        }\n        if(encodedUser == encodedDelivered){\n            return STATUS.DELIVERED;\n        }\n        revert(\"Recieved a wrong type of status\");\n    }\n}",
    "sourcePath": "/home/hkhehmad/Desktop/documents/uni/block_chain/proj_react/contracts/ShipmentContract.sol",
    "compiler": {
        "name": "solc",
        "version": "0.8.11+commit.d7f03943.Emscripten.clang"
    },
    "schemaVersion": "3.4.4",
    "updatedAt": "2022-01-27T23:30:39.607Z",
    "devdoc": {
        "kind": "dev",
        "methods": {},
        "version": 1
    },
    "userdoc": {
        "kind": "user",
        "methods": {},
        "version": 1
    }
}